{
  "contractName": "Creature",
  "abi": [
    {
      "inputs": [
        {
          "internalType": "address",
          "name": "_proxyRegistryAddress",
          "type": "address"
        }
      ],
      "stateMutability": "nonpayable",
      "type": "constructor"
    },
    {
      "anonymous": false,
      "inputs": [
        {
          "indexed": true,
          "internalType": "address",
          "name": "owner",
          "type": "address"
        },
        {
          "indexed": true,
          "internalType": "address",
          "name": "approved",
          "type": "address"
        },
        {
          "indexed": true,
          "internalType": "uint256",
          "name": "tokenId",
          "type": "uint256"
        }
      ],
      "name": "Approval",
      "type": "event"
    },
    {
      "anonymous": false,
      "inputs": [
        {
          "indexed": true,
          "internalType": "address",
          "name": "owner",
          "type": "address"
        },
        {
          "indexed": true,
          "internalType": "address",
          "name": "operator",
          "type": "address"
        },
        {
          "indexed": false,
          "internalType": "bool",
          "name": "approved",
          "type": "bool"
        }
      ],
      "name": "ApprovalForAll",
      "type": "event"
    },
    {
      "anonymous": false,
      "inputs": [
        {
          "indexed": false,
          "internalType": "address",
          "name": "userAddress",
          "type": "address"
        },
        {
          "indexed": false,
          "internalType": "address payable",
          "name": "relayerAddress",
          "type": "address"
        },
        {
          "indexed": false,
          "internalType": "bytes",
          "name": "functionSignature",
          "type": "bytes"
        }
      ],
      "name": "MetaTransactionExecuted",
      "type": "event"
    },
    {
      "anonymous": false,
      "inputs": [
        {
          "indexed": true,
          "internalType": "address",
          "name": "previousOwner",
          "type": "address"
        },
        {
          "indexed": true,
          "internalType": "address",
          "name": "newOwner",
          "type": "address"
        }
      ],
      "name": "OwnershipTransferred",
      "type": "event"
    },
    {
      "anonymous": false,
      "inputs": [
        {
          "indexed": true,
          "internalType": "address",
          "name": "from",
          "type": "address"
        },
        {
          "indexed": true,
          "internalType": "address",
          "name": "to",
          "type": "address"
        },
        {
          "indexed": true,
          "internalType": "uint256",
          "name": "tokenId",
          "type": "uint256"
        }
      ],
      "name": "Transfer",
      "type": "event"
    },
    {
      "inputs": [],
      "name": "ERC712_VERSION",
      "outputs": [
        {
          "internalType": "string",
          "name": "",
          "type": "string"
        }
      ],
      "stateMutability": "view",
      "type": "function",
      "constant": true
    },
    {
      "inputs": [
        {
          "internalType": "address",
          "name": "to",
          "type": "address"
        },
        {
          "internalType": "uint256",
          "name": "tokenId",
          "type": "uint256"
        }
      ],
      "name": "approve",
      "outputs": [],
      "stateMutability": "nonpayable",
      "type": "function"
    },
    {
      "inputs": [
        {
          "internalType": "address",
          "name": "owner",
          "type": "address"
        }
      ],
      "name": "balanceOf",
      "outputs": [
        {
          "internalType": "uint256",
          "name": "",
          "type": "uint256"
        }
      ],
      "stateMutability": "view",
      "type": "function",
      "constant": true
    },
    {
      "inputs": [
        {
          "internalType": "address",
          "name": "userAddress",
          "type": "address"
        },
        {
          "internalType": "bytes",
          "name": "functionSignature",
          "type": "bytes"
        },
        {
          "internalType": "bytes32",
          "name": "sigR",
          "type": "bytes32"
        },
        {
          "internalType": "bytes32",
          "name": "sigS",
          "type": "bytes32"
        },
        {
          "internalType": "uint8",
          "name": "sigV",
          "type": "uint8"
        }
      ],
      "name": "executeMetaTransaction",
      "outputs": [
        {
          "internalType": "bytes",
          "name": "",
          "type": "bytes"
        }
      ],
      "stateMutability": "payable",
      "type": "function",
      "payable": true
    },
    {
      "inputs": [
        {
          "internalType": "uint256",
          "name": "tokenId",
          "type": "uint256"
        }
      ],
      "name": "getApproved",
      "outputs": [
        {
          "internalType": "address",
          "name": "",
          "type": "address"
        }
      ],
      "stateMutability": "view",
      "type": "function",
      "constant": true
    },
    {
      "inputs": [],
      "name": "getChainId",
      "outputs": [
        {
          "internalType": "uint256",
          "name": "",
          "type": "uint256"
        }
      ],
      "stateMutability": "view",
      "type": "function",
      "constant": true
    },
    {
      "inputs": [],
      "name": "getDomainSeperator",
      "outputs": [
        {
          "internalType": "bytes32",
          "name": "",
          "type": "bytes32"
        }
      ],
      "stateMutability": "view",
      "type": "function",
      "constant": true
    },
    {
      "inputs": [
        {
          "internalType": "address",
          "name": "user",
          "type": "address"
        }
      ],
      "name": "getNonce",
      "outputs": [
        {
          "internalType": "uint256",
          "name": "nonce",
          "type": "uint256"
        }
      ],
      "stateMutability": "view",
      "type": "function",
      "constant": true
    },
    {
      "inputs": [
        {
          "internalType": "address",
          "name": "owner",
          "type": "address"
        },
        {
          "internalType": "address",
          "name": "operator",
          "type": "address"
        }
      ],
      "name": "isApprovedForAll",
      "outputs": [
        {
          "internalType": "bool",
          "name": "",
          "type": "bool"
        }
      ],
      "stateMutability": "view",
      "type": "function",
      "constant": true
    },
    {
      "inputs": [
        {
          "internalType": "address",
          "name": "_to",
          "type": "address"
        }
      ],
      "name": "mintTo",
      "outputs": [],
      "stateMutability": "nonpayable",
      "type": "function"
    },
    {
      "inputs": [],
      "name": "name",
      "outputs": [
        {
          "internalType": "string",
          "name": "",
          "type": "string"
        }
      ],
      "stateMutability": "view",
      "type": "function",
      "constant": true
    },
    {
      "inputs": [],
      "name": "owner",
      "outputs": [
        {
          "internalType": "address",
          "name": "",
          "type": "address"
        }
      ],
      "stateMutability": "view",
      "type": "function",
      "constant": true
    },
    {
      "inputs": [
        {
          "internalType": "uint256",
          "name": "tokenId",
          "type": "uint256"
        }
      ],
      "name": "ownerOf",
      "outputs": [
        {
          "internalType": "address",
          "name": "",
          "type": "address"
        }
      ],
      "stateMutability": "view",
      "type": "function",
      "constant": true
    },
    {
      "inputs": [],
      "name": "renounceOwnership",
      "outputs": [],
      "stateMutability": "nonpayable",
      "type": "function"
    },
    {
      "inputs": [
        {
          "internalType": "address",
          "name": "from",
          "type": "address"
        },
        {
          "internalType": "address",
          "name": "to",
          "type": "address"
        },
        {
          "internalType": "uint256",
          "name": "tokenId",
          "type": "uint256"
        }
      ],
      "name": "safeTransferFrom",
      "outputs": [],
      "stateMutability": "nonpayable",
      "type": "function"
    },
    {
      "inputs": [
        {
          "internalType": "address",
          "name": "from",
          "type": "address"
        },
        {
          "internalType": "address",
          "name": "to",
          "type": "address"
        },
        {
          "internalType": "uint256",
          "name": "tokenId",
          "type": "uint256"
        },
        {
          "internalType": "bytes",
          "name": "_data",
          "type": "bytes"
        }
      ],
      "name": "safeTransferFrom",
      "outputs": [],
      "stateMutability": "nonpayable",
      "type": "function"
    },
    {
      "inputs": [
        {
          "internalType": "address",
          "name": "operator",
          "type": "address"
        },
        {
          "internalType": "bool",
          "name": "approved",
          "type": "bool"
        }
      ],
      "name": "setApprovalForAll",
      "outputs": [],
      "stateMutability": "nonpayable",
      "type": "function"
    },
    {
      "inputs": [
        {
          "internalType": "bytes4",
          "name": "interfaceId",
          "type": "bytes4"
        }
      ],
      "name": "supportsInterface",
      "outputs": [
        {
          "internalType": "bool",
          "name": "",
          "type": "bool"
        }
      ],
      "stateMutability": "view",
      "type": "function",
      "constant": true
    },
    {
      "inputs": [],
      "name": "symbol",
      "outputs": [
        {
          "internalType": "string",
          "name": "",
          "type": "string"
        }
      ],
      "stateMutability": "view",
      "type": "function",
      "constant": true
    },
    {
      "inputs": [
        {
          "internalType": "uint256",
          "name": "_tokenId",
          "type": "uint256"
        }
      ],
      "name": "tokenURI",
      "outputs": [
        {
          "internalType": "string",
          "name": "",
          "type": "string"
        }
      ],
      "stateMutability": "pure",
      "type": "function",
      "constant": true
    },
    {
      "inputs": [],
      "name": "totalSupply",
      "outputs": [
        {
          "internalType": "uint256",
          "name": "",
          "type": "uint256"
        }
      ],
      "stateMutability": "view",
      "type": "function",
      "constant": true
    },
    {
      "inputs": [
        {
          "internalType": "address",
          "name": "from",
          "type": "address"
        },
        {
          "internalType": "address",
          "name": "to",
          "type": "address"
        },
        {
          "internalType": "uint256",
          "name": "tokenId",
          "type": "uint256"
        }
      ],
      "name": "transferFrom",
      "outputs": [],
      "stateMutability": "nonpayable",
      "type": "function"
    },
    {
      "inputs": [
        {
          "internalType": "address",
          "name": "newOwner",
          "type": "address"
        }
      ],
      "name": "transferOwnership",
      "outputs": [],
      "stateMutability": "nonpayable",
      "type": "function"
    },
    {
      "inputs": [],
      "name": "baseTokenURI",
      "outputs": [
        {
          "internalType": "string",
          "name": "",
          "type": "string"
        }
      ],
      "stateMutability": "pure",
      "type": "function",
      "constant": true
    },
    {
      "inputs": [],
      "name": "contractURI",
      "outputs": [
        {
          "internalType": "string",
          "name": "",
          "type": "string"
        }
      ],
      "stateMutability": "pure",
      "type": "function",
      "constant": true
    }
  ],
  "bytecode": "0x60806040526006805460ff191690553480156200001b57600080fd5b5060405162002266380380620022668339810160408190526200003e9162000392565b60405180604001604052806008815260200167437265617475726560c01b815250604051806040016040528060038152602001624f534360e81b815250828282816000908051906020019062000096929190620002ec565b508051620000ac906001906020840190620002ec565b505050620000c9620000c36200011160201b60201c565b6200012d565b600b80546001600160a01b0319166001600160a01b038316179055620000fc600a6200017f602090811b62000d3117901c565b620001078362000188565b5050505062000400565b600062000128620001ec60201b62000d3a1760201c565b905090565b600980546001600160a01b038381166001600160a01b0319831681179093556040519116919082907f8be0079c531659141344cd1fd0a4f28419497f9722a3daafe3b4186f6b6457e090600090a35050565b80546001019055565b60065460ff1615620001d15760405162461bcd60e51b815260206004820152600e60248201526d185b1c9958591e481a5b9a5d195960921b604482015260640160405180910390fd5b620001dc816200024a565b506006805460ff19166001179055565b60003033036200024457600080368080601f0160208091040260200160405190810160405280939291908181526020018383808284376000920191909152505050503601516001600160a01b03169150620002479050565b50335b90565b6040518060800160405280604f815260200162002217604f9139805160209182012082519282019290922060408051808201825260018152603160f81b90840152805180840194909452838101919091527fc89efdaa54c0f20c7adf612882df0950f5a951637e0307cdcb4c672f298b8bc660608401523060808401524660a0808501919091528151808503909101815260c090930190528151910120600755565b828054620002fa90620003c4565b90600052602060002090601f0160209004810192826200031e576000855562000369565b82601f106200033957805160ff191683800117855562000369565b8280016001018555821562000369579182015b82811115620003695782518255916020019190600101906200034c565b50620003779291506200037b565b5090565b5b808211156200037757600081556001016200037c565b600060208284031215620003a557600080fd5b81516001600160a01b0381168114620003bd57600080fd5b9392505050565b600181811c90821680620003d957607f821691505b602082108103620003fa57634e487b7160e01b600052602260045260246000fd5b50919050565b611e0780620004106000396000f3fe6080604052600436106101265760003560e01c806301ffc9a71461012b57806306fdde0314610160578063081812fc14610182578063095ea7b3146101af5780630c53c51c146101d15780630f7e5970146101e457806318160ddd1461021157806320379ee51461023457806323b872dd146102495780632d0335ab146102695780633408e4701461029f57806342842e0e146102b25780636352211e146102d257806370a08231146102f2578063715018a614610312578063755edd17146103275780638da5cb5b1461034757806395d89b411461035c578063a22cb46514610371578063b88d4fde14610391578063c87b56dd146103b1578063d547cfb7146103d1578063e8a3d485146103e6578063e985e9c514610418578063f2fde38b14610438575b600080fd5b34801561013757600080fd5b5061014b610146366004611729565b610458565b60405190151581526020015b60405180910390f35b34801561016c57600080fd5b506101756104aa565b604051610157919061179e565b34801561018e57600080fd5b506101a261019d3660046117b1565b61053c565b60405161015791906117ca565b3480156101bb57600080fd5b506101cf6101ca3660046117f3565b6105c9565b005b6101756101df3660046118c1565b6106eb565b3480156101f057600080fd5b50610175604051806040016040528060018152602001603160f81b81525081565b34801561021d57600080fd5b506102266108d4565b604051908152602001610157565b34801561024057600080fd5b50600754610226565b34801561025557600080fd5b506101cf61026436600461193e565b6108f0565b34801561027557600080fd5b5061022661028436600461197f565b6001600160a01b031660009081526008602052604090205490565b3480156102ab57600080fd5b5046610226565b3480156102be57600080fd5b506101cf6102cd36600461193e565b610928565b3480156102de57600080fd5b506101a26102ed3660046117b1565b610943565b3480156102fe57600080fd5b5061022661030d36600461197f565b6109ba565b34801561031e57600080fd5b506101cf610a41565b34801561033357600080fd5b506101cf61034236600461197f565b610a8c565b34801561035357600080fd5b506101a2610af4565b34801561036857600080fd5b50610175610b03565b34801561037d57600080fd5b506101cf61038c36600461199c565b610b12565b34801561039d57600080fd5b506101cf6103ac3660046119da565b610b24565b3480156103bd57600080fd5b506101756103cc3660046117b1565b610b63565b3480156103dd57600080fd5b50610175610b9d565b3480156103f257600080fd5b506040805180820190915260098152685748593f3f3f3f3f3f60b81b6020820152610175565b34801561042457600080fd5b5061014b610433366004611a45565b610bbd565b34801561044457600080fd5b506101cf61045336600461197f565b610c81565b60006001600160e01b031982166380ac58cd60e01b148061048957506001600160e01b03198216635b5e139f60e01b145b806104a457506301ffc9a760e01b6001600160e01b03198316145b92915050565b6060600080546104b990611a73565b80601f01602080910402602001604051908101604052809291908181526020018280546104e590611a73565b80156105325780601f1061050757610100808354040283529160200191610532565b820191906000526020600020905b81548152906001019060200180831161051557829003601f168201915b5050505050905090565b600061054782610d96565b6105ad5760405162461bcd60e51b815260206004820152602c60248201527f4552433732313a20617070726f76656420717565727920666f72206e6f6e657860448201526b34b9ba32b73a103a37b5b2b760a11b60648201526084015b60405180910390fd5b506000908152600460205260409020546001600160a01b031690565b60006105d482610943565b9050806001600160a01b0316836001600160a01b0316036106415760405162461bcd60e51b815260206004820152602160248201527f4552433732313a20617070726f76616c20746f2063757272656e74206f776e656044820152603960f91b60648201526084016105a4565b806001600160a01b0316610653610db3565b6001600160a01b0316148061066f575061066f81610433610db3565b6106dc5760405162461bcd60e51b815260206004820152603860248201527f4552433732313a20617070726f76652063616c6c6572206973206e6f74206f776044820152771b995c881b9bdc88185c1c1c9bdd995908199bdc88185b1b60421b60648201526084016105a4565b6106e68383610dbd565b505050565b60408051606081810183526001600160a01b038816600081815260086020908152908590205484528301529181018690526107298782878787610e2b565b61077f5760405162461bcd60e51b815260206004820152602160248201527f5369676e657220616e64207369676e617475726520646f206e6f74206d6174636044820152600d60fb1b60648201526084016105a4565b6001600160a01b0387166000908152600860205260409020546107a3906001610f1b565b6001600160a01b0388166000908152600860205260409081902091909155517f5845892132946850460bff5a0083f71031bc5bf9aadcd40f1de79423eac9b10b906107f390899033908a90611aad565b60405180910390a1600080306001600160a01b0316888a60405160200161081b929190611ae2565b60408051601f198184030181529082905261083591611b14565b6000604051808303816000865af19150503d8060008114610872576040519150601f19603f3d011682016040523d82523d6000602084013e610877565b606091505b5091509150816108c85760405162461bcd60e51b815260206004820152601c60248201527b119d5b98dd1a5bdb8818d85b1b081b9bdd081cdd58d8d95cdcd99d5b60221b60448201526064016105a4565b98975050505050505050565b600060016108e1600a5490565b6108eb9190611b46565b905090565b6109016108fb610db3565b82610f2e565b61091d5760405162461bcd60e51b81526004016105a490611b5d565b6106e6838383610ff0565b6106e683838360405180602001604052806000815250610b24565b6000818152600260205260408120546001600160a01b0316806104a45760405162461bcd60e51b815260206004820152602960248201527f4552433732313a206f776e657220717565727920666f72206e6f6e657869737460448201526832b73a103a37b5b2b760b91b60648201526084016105a4565b60006001600160a01b038216610a255760405162461bcd60e51b815260206004820152602a60248201527f4552433732313a2062616c616e636520717565727920666f7220746865207a65604482015269726f206164647265737360b01b60648201526084016105a4565b506001600160a01b031660009081526003602052604090205490565b610a49610db3565b6001600160a01b0316610a5a610af4565b6001600160a01b031614610a805760405162461bcd60e51b81526004016105a490611bae565b610a8a6000611190565b565b610a94610db3565b6001600160a01b0316610aa5610af4565b6001600160a01b031614610acb5760405162461bcd60e51b81526004016105a490611bae565b6000610ad6600a5490565b9050610ae6600a80546001019055565b610af082826111e2565b5050565b6009546001600160a01b031690565b6060600180546104b990611a73565b610af0610b1d610db3565b83836111fc565b610b35610b2f610db3565b83610f2e565b610b515760405162461bcd60e51b81526004016105a490611b5d565b610b5d848484846112c6565b50505050565b6060610b6d610b9d565b610b76836112f9565b604051602001610b87929190611be3565b6040516020818303038152906040529050919050565b60606040518060600160405280602e8152602001611da4602e9139905090565b600b5460405163c455279160e01b81526000916001600160a01b039081169190841690829063c455279190610bf69088906004016117ca565b602060405180830381865afa158015610c13573d6000803e3d6000fd5b505050506040513d601f19601f82011682018060405250810190610c379190611c12565b6001600160a01b031603610c4f5760019150506104a4565b6001600160a01b0380851660009081526005602090815260408083209387168352929052205460ff165b949350505050565b610c89610db3565b6001600160a01b0316610c9a610af4565b6001600160a01b031614610cc05760405162461bcd60e51b81526004016105a490611bae565b6001600160a01b038116610d255760405162461bcd60e51b815260206004820152602660248201527f4f776e61626c653a206e6577206f776e657220697320746865207a65726f206160448201526564647265737360d01b60648201526084016105a4565b610d2e81611190565b50565b80546001019055565b6000303303610d9057600080368080601f0160208091040260200160405190810160405280939291908181526020018383808284376000920191909152505050503601516001600160a01b03169150610d939050565b50335b90565b6000908152600260205260409020546001600160a01b0316151590565b60006108eb610d3a565b600081815260046020526040902080546001600160a01b0319166001600160a01b0384169081179091558190610df282610943565b6001600160a01b03167f8c5be1e5ebec7d5bd14f71427d1e84f3dd0314c0f7b2291e5b200ac8c7c3b92560405160405180910390a45050565b60006001600160a01b038616610e915760405162461bcd60e51b815260206004820152602560248201527f4e61746976654d6574615472616e73616374696f6e3a20494e56414c49445f5360448201526424a3a722a960d91b60648201526084016105a4565b6001610ea4610e9f876113f9565b611476565b6040805160008152602081018083529290925260ff851690820152606081018690526080810185905260a0016020604051602081039080840390855afa158015610ef2573d6000803e3d6000fd5b505050602060405103516001600160a01b0316866001600160a01b031614905095945050505050565b6000610f278284611c2f565b9392505050565b6000610f3982610d96565b610f9a5760405162461bcd60e51b815260206004820152602c60248201527f4552433732313a206f70657261746f7220717565727920666f72206e6f6e657860448201526b34b9ba32b73a103a37b5b2b760a11b60648201526084016105a4565b6000610fa583610943565b9050806001600160a01b0316846001600160a01b03161480610fe05750836001600160a01b0316610fd58461053c565b6001600160a01b0316145b80610c795750610c798185610bbd565b826001600160a01b031661100382610943565b6001600160a01b03161461106b5760405162461bcd60e51b815260206004820152602960248201527f4552433732313a207472616e73666572206f6620746f6b656e2074686174206960448201526839903737ba1037bbb760b91b60648201526084016105a4565b6001600160a01b0382166110cd5760405162461bcd60e51b8152602060048201526024808201527f4552433732313a207472616e7366657220746f20746865207a65726f206164646044820152637265737360e01b60648201526084016105a4565b6110d8600082610dbd565b6001600160a01b0383166000908152600360205260408120805460019290611101908490611b46565b90915550506001600160a01b038216600090815260036020526040812080546001929061112f908490611c2f565b909155505060008181526002602052604080822080546001600160a01b0319166001600160a01b0386811691821790925591518493918716917fddf252ad1be2c89b69c2b068fc378daa952ba7f163c4a11628f55a4df523b3ef91a4505050565b600980546001600160a01b038381166001600160a01b0319831681179093556040519116919082907f8be0079c531659141344cd1fd0a4f28419497f9722a3daafe3b4186f6b6457e090600090a35050565b610af08282604051806020016040528060008152506114a6565b816001600160a01b0316836001600160a01b0316036112595760405162461bcd60e51b815260206004820152601960248201527822a9219b99189d1030b8383937bb32903a379031b0b63632b960391b60448201526064016105a4565b6001600160a01b03838116600081815260056020908152604080832094871680845294825291829020805460ff191686151590811790915591519182527f17307eab39ab6107e8899845ad3d59bd9653f200f220920489ca2b5937696c31910160405180910390a3505050565b6112d1848484610ff0565b6112dd848484846114d9565b610b5d5760405162461bcd60e51b81526004016105a490611c47565b6060816000036113205750506040805180820190915260018152600360fc1b602082015290565b8160005b811561134a578061133481611c99565b91506113439050600a83611cc8565b9150611324565b6000816001600160401b038111156113645761136461181f565b6040519080825280601f01601f19166020018201604052801561138e576020820181803683370190505b5090505b8415610c79576113a3600183611b46565b91506113b0600a86611cdc565b6113bb906030611c2f565b60f81b8183815181106113d0576113d0611cf0565b60200101906001600160f81b031916908160001a9053506113f2600a86611cc8565b9450611392565b6000604051806080016040528060438152602001611d616043913980516020918201208351848301516040808701518051908601209051611459950193845260208401929092526001600160a01b03166040830152606082015260800190565b604051602081830303815290604052805190602001209050919050565b600061148160075490565b60405161190160f01b6020820152602281019190915260428101839052606201611459565b6114b083836115e1565b6114bd60008484846114d9565b6106e65760405162461bcd60e51b81526004016105a490611c47565b60006001600160a01b0384163b156115d657836001600160a01b031663150b7a02611502610db3565b8786866040518563ffffffff1660e01b81526004016115249493929190611d06565b6020604051808303816000875af192505050801561155f575060408051601f3d908101601f1916820190925261155c91810190611d43565b60015b6115bc573d80801561158d576040519150601f19603f3d011682016040523d82523d6000602084013e611592565b606091505b5080516000036115b45760405162461bcd60e51b81526004016105a490611c47565b805181602001fd5b6001600160e01b031916630a85bd0160e11b149050610c79565b506001949350505050565b6001600160a01b0382166116375760405162461bcd60e51b815260206004820181905260248201527f4552433732313a206d696e7420746f20746865207a65726f206164647265737360448201526064016105a4565b61164081610d96565b1561168c5760405162461bcd60e51b815260206004820152601c60248201527b115490cdcc8c4e881d1bdad95b88185b1c9958591e481b5a5b9d195960221b60448201526064016105a4565b6001600160a01b03821660009081526003602052604081208054600192906116b5908490611c2f565b909155505060008181526002602052604080822080546001600160a01b0319166001600160a01b03861690811790915590518392907fddf252ad1be2c89b69c2b068fc378daa952ba7f163c4a11628f55a4df523b3ef908290a45050565b6001600160e01b031981168114610d2e57600080fd5b60006020828403121561173b57600080fd5b8135610f2781611713565b60005b83811015611761578181015183820152602001611749565b83811115610b5d5750506000910152565b6000815180845261178a816020860160208601611746565b601f01601f19169290920160200192915050565b602081526000610f276020830184611772565b6000602082840312156117c357600080fd5b5035919050565b6001600160a01b0391909116815260200190565b6001600160a01b0381168114610d2e57600080fd5b6000806040838503121561180657600080fd5b8235611811816117de565b946020939093013593505050565b634e487b7160e01b600052604160045260246000fd5b600082601f83011261184657600080fd5b81356001600160401b03808211156118605761186061181f565b604051601f8301601f19908116603f011681019082821181831017156118885761188861181f565b816040528381528660208588010111156118a157600080fd5b836020870160208301376000602085830101528094505050505092915050565b600080600080600060a086880312156118d957600080fd5b85356118e4816117de565b945060208601356001600160401b038111156118ff57600080fd5b61190b88828901611835565b9450506040860135925060608601359150608086013560ff8116811461193057600080fd5b809150509295509295909350565b60008060006060848603121561195357600080fd5b833561195e816117de565b9250602084013561196e816117de565b929592945050506040919091013590565b60006020828403121561199157600080fd5b8135610f27816117de565b600080604083850312156119af57600080fd5b82356119ba816117de565b9150602083013580151581146119cf57600080fd5b809150509250929050565b600080600080608085870312156119f057600080fd5b84356119fb816117de565b93506020850135611a0b816117de565b92506040850135915060608501356001600160401b03811115611a2d57600080fd5b611a3987828801611835565b91505092959194509250565b60008060408385031215611a5857600080fd5b8235611a63816117de565b915060208301356119cf816117de565b600181811c90821680611a8757607f821691505b602082108103611aa757634e487b7160e01b600052602260045260246000fd5b50919050565b6001600160a01b03848116825283166020820152606060408201819052600090611ad990830184611772565b95945050505050565b60008351611af4818460208801611746565b60609390931b6001600160601b0319169190920190815260140192915050565b60008251611b26818460208701611746565b9190910192915050565b634e487b7160e01b600052601160045260246000fd5b600082821015611b5857611b58611b30565b500390565b60208082526031908201527f4552433732313a207472616e736665722063616c6c6572206973206e6f74206f6040820152701ddb995c881b9bdc88185c1c1c9bdd9959607a1b606082015260800190565b6020808252818101527f4f776e61626c653a2063616c6c6572206973206e6f7420746865206f776e6572604082015260600190565b60008351611bf5818460208801611746565b835190830190611c09818360208801611746565b01949350505050565b600060208284031215611c2457600080fd5b8151610f27816117de565b60008219821115611c4257611c42611b30565b500190565b60208082526032908201527f4552433732313a207472616e7366657220746f206e6f6e20455243373231526560408201527131b2b4bb32b91034b6b83632b6b2b73a32b960711b606082015260800190565b600060018201611cab57611cab611b30565b5060010190565b634e487b7160e01b600052601260045260246000fd5b600082611cd757611cd7611cb2565b500490565b600082611ceb57611ceb611cb2565b500690565b634e487b7160e01b600052603260045260246000fd5b6001600160a01b0385811682528416602082015260408101839052608060608201819052600090611d3990830184611772565b9695505050505050565b600060208284031215611d5557600080fd5b8151610f278161171356fe4d6574615472616e73616374696f6e2875696e74323536206e6f6e63652c616464726573732066726f6d2c62797465732066756e6374696f6e5369676e61747572652968747470733a2f2f6372656174757265732d6170692e6f70656e7365612e696f2f6170692f63726561747572652fa264697066735822122053502533651866085908044fb87f0fb627f3ca0635c1f8e9186e3bba9175de5c64736f6c634300080e0033454950373132446f6d61696e28737472696e67206e616d652c737472696e672076657273696f6e2c6164647265737320766572696679696e67436f6e74726163742c627974657333322073616c7429",
  "immutableReferences": {},
  "source": "// SPDX-License-Identifier: MIT\r\n\r\npragma solidity ^0.8.0;\r\n\r\nimport \"./ERC721Tradable.sol\";\r\n\r\n/**\r\n * @title Creature\r\n * Creature - a contract for my non-fungible creatures.\r\n */\r\ncontract Creature is ERC721Tradable {\r\n    constructor(address _proxyRegistryAddress)\r\n        ERC721Tradable(\"Creature\", \"OSC\", _proxyRegistryAddress)\r\n    {}\r\n\r\n    function baseTokenURI() override public pure returns (string memory) {\r\n        return \"https://creatures-api.opensea.io/api/creature/\";\r\n    }\r\n\r\n    function contractURI() public pure returns (string memory) {\r\n        return \"WHY??????\";\r\n    }\r\n}\r\n",
  "sourcePath": "C:\\Users\\nazik\\Git\\opensea-creatures\\contracts\\Creature.sol",
  "compiler": {
    "name": "solc",
    "version": "0.8.14+commit.80d49f37.Emscripten.clang"
  },
  "schemaVersion": "3.3.4",
  "updatedAt": "2022-06-14T21:13:43.642Z",
  "networkType": "ethereum",
  "devdoc": {
    "kind": "dev",
    "methods": {
      "approve(address,uint256)": {
        "details": "See {IERC721-approve}."
      },
      "balanceOf(address)": {
        "details": "See {IERC721-balanceOf}."
      },
      "getApproved(uint256)": {
        "details": "See {IERC721-getApproved}."
      },
      "mintTo(address)": {
        "details": "Mints a token to an address with a tokenURI.",
        "params": {
          "_to": "address of the future owner of the token"
        }
      },
      "name()": {
        "details": "See {IERC721Metadata-name}."
      },
      "owner()": {
        "details": "Returns the address of the current owner."
      },
      "ownerOf(uint256)": {
        "details": "See {IERC721-ownerOf}."
      },
      "renounceOwnership()": {
        "details": "Leaves the contract without owner. It will not be possible to call `onlyOwner` functions anymore. Can only be called by the current owner. NOTE: Renouncing ownership will leave the contract without an owner, thereby removing any functionality that is only available to the owner."
      },
      "safeTransferFrom(address,address,uint256)": {
        "details": "See {IERC721-safeTransferFrom}."
      },
      "safeTransferFrom(address,address,uint256,bytes)": {
        "details": "See {IERC721-safeTransferFrom}."
      },
      "setApprovalForAll(address,bool)": {
        "details": "See {IERC721-setApprovalForAll}."
      },
      "supportsInterface(bytes4)": {
        "details": "See {IERC165-supportsInterface}."
      },
      "symbol()": {
        "details": "See {IERC721Metadata-symbol}."
      },
      "totalSupply()": {
        "details": "Returns the total tokens minted so far. 1 is always subtracted from the Counter since it tracks the next available tokenId."
      },
      "transferFrom(address,address,uint256)": {
        "details": "See {IERC721-transferFrom}."
      },
      "transferOwnership(address)": {
        "details": "Transfers ownership of the contract to a new account (`newOwner`). Can only be called by the current owner."
      }
    },
    "title": "Creature Creature - a contract for my non-fungible creatures.",
    "version": 1
  },
  "userdoc": {
    "kind": "user",
    "methods": {
      "isApprovedForAll(address,address)": {
        "notice": "Override isApprovedForAll to whitelist user's OpenSea proxy accounts to enable gas-less listings."
      }
    },
    "version": 1
  }
}