{
  "contractName": "ProxyRegistry",
  "abi": [
    {
      "inputs": [
        {
          "internalType": "address",
          "name": "",
          "type": "address"
        }
      ],
      "name": "proxies",
      "outputs": [
        {
          "internalType": "contract OwnableDelegateProxy",
          "name": "",
          "type": "address"
        }
      ],
      "stateMutability": "view",
      "type": "function"
    }
  ],
  "bytecode": "0x608060405234801561001057600080fd5b5060d38061001f6000396000f3fe6080604052348015600f57600080fd5b506004361060285760003560e01c8063c455279114602d575b600080fd5b60536038366004606f565b6000602081905290815260409020546001600160a01b031681565b6040516001600160a01b03909116815260200160405180910390f35b600060208284031215608057600080fd5b81356001600160a01b0381168114609657600080fd5b939250505056fea2646970667358221220f0020cd496f20876e8b1520bfa421393ff0ea3760519c081a5490b58a23edc5364736f6c634300080e0033",
  "immutableReferences": {},
  "source": "// SPDX-License-Identifier: MIT\r\n\r\npragma solidity ^0.8.0;\r\n\r\nimport \"@openzeppelin/contracts/token/ERC721/ERC721.sol\";\r\nimport \"@openzeppelin/contracts/access/Ownable.sol\";\r\nimport \"@openzeppelin/contracts/utils/Counters.sol\";\r\nimport \"@openzeppelin/contracts/utils/Strings.sol\";\r\nimport \"@openzeppelin/contracts/utils/math/SafeMath.sol\";\r\n\r\nimport \"./common/meta-transactions/ContentMixin.sol\";\r\nimport \"./common/meta-transactions/NativeMetaTransaction.sol\";\r\n\r\ncontract OwnableDelegateProxy {}\r\n\r\n/**\r\n * Used to delegate ownership of a contract to another address, to save on unneeded transactions to approve contract use for users\r\n */\r\ncontract ProxyRegistry {\r\n    mapping(address => OwnableDelegateProxy) public proxies;\r\n}\r\n\r\n/**\r\n * @title ERC721Tradable\r\n * ERC721Tradable - ERC721 contract that whitelists a trading address, and has minting functionality.\r\n */\r\nabstract contract ERC721Tradable is ERC721, ContextMixin, NativeMetaTransaction, Ownable {\r\n    using SafeMath for uint256;\r\n    using Counters for Counters.Counter;\r\n\r\n    /**\r\n     * We rely on the OZ Counter util to keep track of the next available ID.\r\n     * We track the nextTokenId instead of the currentTokenId to save users on gas costs. \r\n     * Read more about it here: https://shiny.mirror.xyz/OUampBbIz9ebEicfGnQf5At_ReMHlZy0tB4glb9xQ0E\r\n     */ \r\n    Counters.Counter private _nextTokenId;\r\n    address proxyRegistryAddress;\r\n\r\n    constructor(\r\n        string memory _name,\r\n        string memory _symbol,\r\n        address _proxyRegistryAddress\r\n    ) ERC721(_name, _symbol) {\r\n        proxyRegistryAddress = _proxyRegistryAddress;\r\n        // nextTokenId is initialized to 1, since starting at 0 leads to higher gas cost for the first minter\r\n        _nextTokenId.increment();\r\n        _initializeEIP712(_name);\r\n    }\r\n\r\n    /**\r\n     * @dev Mints a token to an address with a tokenURI.\r\n     * @param _to address of the future owner of the token\r\n     */\r\n    function mintTo(address _to) public onlyOwner {\r\n        uint256 currentTokenId = _nextTokenId.current();\r\n        _nextTokenId.increment();\r\n        _safeMint(_to, currentTokenId);\r\n    }\r\n\r\n    /**\r\n        @dev Returns the total tokens minted so far.\r\n        1 is always subtracted from the Counter since it tracks the next available tokenId.\r\n     */\r\n    function totalSupply() public view returns (uint256) {\r\n        return _nextTokenId.current() - 1;\r\n    }\r\n\r\n    function baseTokenURI() virtual public pure returns (string memory);\r\n\r\n    function tokenURI(uint256 _tokenId) override public pure returns (string memory) {\r\n        return string(abi.encodePacked(baseTokenURI(), Strings.toString(_tokenId)));\r\n    }\r\n\r\n    /**\r\n     * Override isApprovedForAll to whitelist user's OpenSea proxy accounts to enable gas-less listings.\r\n     */\r\n    function isApprovedForAll(address owner, address operator)\r\n        override\r\n        public\r\n        view\r\n        returns (bool)\r\n    {\r\n        // Whitelist OpenSea proxy contract for easy trading.\r\n        ProxyRegistry proxyRegistry = ProxyRegistry(proxyRegistryAddress);\r\n        if (address(proxyRegistry.proxies(owner)) == operator) {\r\n            return true;\r\n        }\r\n\r\n        return super.isApprovedForAll(owner, operator);\r\n    }\r\n\r\n    /**\r\n     * This is used instead of msg.sender as transactions won't be sent by the original token owner, but by OpenSea.\r\n     */\r\n    function _msgSender()\r\n        internal\r\n        override\r\n        view\r\n        returns (address sender)\r\n    {\r\n        return ContextMixin.msgSender();\r\n    }\r\n}\r\n",
  "sourcePath": "C:\\Users\\nazik\\Git\\opensea-creatures\\contracts\\ERC721Tradable.sol",
  "compiler": {
    "name": "solc",
    "version": "0.8.14+commit.80d49f37.Emscripten.clang"
  },
  "schemaVersion": "3.3.4",
  "updatedAt": "2022-06-14T21:02:29.155Z",
  "devdoc": {
    "kind": "dev",
    "methods": {},
    "version": 1
  },
  "userdoc": {
    "kind": "user",
    "methods": {},
    "notice": "Used to delegate ownership of a contract to another address, to save on unneeded transactions to approve contract use for users",
    "version": 1
  }
}